{
  "contractName": "DonateFactory",
  "abi": [
    {
      "inputs": [],
      "stateMutability": "nonpayable",
      "type": "constructor"
    },
    {
      "anonymous": false,
      "inputs": [
        {
          "indexed": false,
          "internalType": "uint256",
          "name": "id",
          "type": "uint256"
        },
        {
          "indexed": false,
          "internalType": "uint256",
          "name": "demandId",
          "type": "uint256"
        },
        {
          "indexed": false,
          "internalType": "string",
          "name": "username",
          "type": "string"
        },
        {
          "indexed": false,
          "internalType": "address",
          "name": "sender",
          "type": "address"
        },
        {
          "indexed": false,
          "internalType": "string",
          "name": "content",
          "type": "string"
        },
        {
          "indexed": false,
          "internalType": "string",
          "name": "pic",
          "type": "string"
        },
        {
          "indexed": false,
          "internalType": "string",
          "name": "city",
          "type": "string"
        },
        {
          "indexed": false,
          "internalType": "string",
          "name": "express",
          "type": "string"
        },
        {
          "indexed": false,
          "internalType": "uint256",
          "name": "status",
          "type": "uint256"
        }
      ],
      "name": "NewDonate",
      "type": "event"
    },
    {
      "anonymous": false,
      "inputs": [
        {
          "indexed": false,
          "internalType": "uint256",
          "name": "id",
          "type": "uint256"
        },
        {
          "indexed": false,
          "internalType": "uint256",
          "name": "demandId",
          "type": "uint256"
        },
        {
          "indexed": false,
          "internalType": "uint256",
          "name": "status",
          "type": "uint256"
        }
      ],
      "name": "Status",
      "type": "event"
    },
    {
      "inputs": [],
      "name": "admin",
      "outputs": [
        {
          "internalType": "address",
          "name": "",
          "type": "address"
        }
      ],
      "stateMutability": "view",
      "type": "function"
    },
    {
      "inputs": [
        {
          "internalType": "uint256",
          "name": "",
          "type": "uint256"
        }
      ],
      "name": "donates",
      "outputs": [
        {
          "internalType": "uint256",
          "name": "id",
          "type": "uint256"
        },
        {
          "internalType": "uint256",
          "name": "demandId",
          "type": "uint256"
        },
        {
          "internalType": "string",
          "name": "username",
          "type": "string"
        },
        {
          "internalType": "address",
          "name": "sender",
          "type": "address"
        },
        {
          "internalType": "string",
          "name": "content",
          "type": "string"
        },
        {
          "internalType": "string",
          "name": "pic",
          "type": "string"
        },
        {
          "internalType": "string",
          "name": "city",
          "type": "string"
        },
        {
          "internalType": "string",
          "name": "express",
          "type": "string"
        },
        {
          "internalType": "uint256",
          "name": "status",
          "type": "uint256"
        }
      ],
      "stateMutability": "view",
      "type": "function"
    },
    {
      "inputs": [],
      "name": "index",
      "outputs": [
        {
          "internalType": "uint256",
          "name": "",
          "type": "uint256"
        }
      ],
      "stateMutability": "view",
      "type": "function"
    },
    {
      "inputs": [
        {
          "internalType": "uint256",
          "name": "_demandId",
          "type": "uint256"
        },
        {
          "internalType": "string",
          "name": "_username",
          "type": "string"
        },
        {
          "internalType": "string",
          "name": "_content",
          "type": "string"
        },
        {
          "internalType": "string",
          "name": "_pic",
          "type": "string"
        },
        {
          "internalType": "string",
          "name": "_city",
          "type": "string"
        },
        {
          "internalType": "string",
          "name": "_express",
          "type": "string"
        }
      ],
      "name": "createDonate",
      "outputs": [],
      "stateMutability": "nonpayable",
      "type": "function"
    },
    {
      "inputs": [
        {
          "internalType": "uint256",
          "name": "_id",
          "type": "uint256"
        }
      ],
      "name": "finish",
      "outputs": [],
      "stateMutability": "nonpayable",
      "type": "function"
    },
    {
      "inputs": [],
      "name": "destroy",
      "outputs": [],
      "stateMutability": "nonpayable",
      "type": "function"
    }
  ],
  "bytecode": "0x608060405273860680319aba123591c97223e3da42cd76518982600360006101000a81548173ffffffffffffffffffffffffffffffffffffffff021916908373ffffffffffffffffffffffffffffffffffffffff16021790555034801561006557600080fd5b506000600181905550336000806101000a81548173ffffffffffffffffffffffffffffffffffffffff021916908373ffffffffffffffffffffffffffffffffffffffff160217905550611207806100bd6000396000f3fe608060405234801561001057600080fd5b50600436106100625760003560e01c80632986c0e51461006757806343935cff146100855780635db82085146103a657806383197ef01461062f578063d353a1cb14610639578063f851a44014610667575b600080fd5b61006f61069b565b6040518082815260200191505060405180910390f35b6103a4600480360360c081101561009b57600080fd5b8101908080359060200190929190803590602001906401000000008111156100c257600080fd5b8201836020820111156100d457600080fd5b803590602001918460018302840111640100000000831117156100f657600080fd5b91908080601f016020809104026020016040519081016040528093929190818152602001838380828437600081840152601f19601f8201169050808301925050505050505091929192908035906020019064010000000081111561015957600080fd5b82018360208201111561016b57600080fd5b8035906020019184600183028401116401000000008311171561018d57600080fd5b91908080601f016020809104026020016040519081016040528093929190818152602001838380828437600081840152601f19601f820116905080830192505050505050509192919290803590602001906401000000008111156101f057600080fd5b82018360208201111561020257600080fd5b8035906020019184600183028401116401000000008311171561022457600080fd5b91908080601f016020809104026020016040519081016040528093929190818152602001838380828437600081840152601f19601f8201169050808301925050505050505091929192908035906020019064010000000081111561028757600080fd5b82018360208201111561029957600080fd5b803590602001918460018302840111640100000000831117156102bb57600080fd5b91908080601f016020809104026020016040519081016040528093929190818152602001838380828437600081840152601f19601f8201169050808301925050505050505091929192908035906020019064010000000081111561031e57600080fd5b82018360208201111561033057600080fd5b8035906020019184600183028401116401000000008311171561035257600080fd5b91908080601f016020809104026020016040519081016040528093929190818152602001838380828437600081840152601f19601f8201169050808301925050505050505091929192905050506106a1565b005b6103d2600480360360208110156103bc57600080fd5b8101908080359060200190929190505050610b6e565b604051808a8152602001898152602001806020018873ffffffffffffffffffffffffffffffffffffffff1681526020018060200180602001806020018060200187815260200186810386528d818151815260200191508051906020019080838360005b83811015610450578082015181840152602081019050610435565b50505050905090810190601f16801561047d5780820380516001836020036101000a031916815260200191505b5086810385528b818151815260200191508051906020019080838360005b838110156104b657808201518184015260208101905061049b565b50505050905090810190601f1680156104e35780820380516001836020036101000a031916815260200191505b5086810384528a818151815260200191508051906020019080838360005b8381101561051c578082015181840152602081019050610501565b50505050905090810190601f1680156105495780820380516001836020036101000a031916815260200191505b50868103835289818151815260200191508051906020019080838360005b83811015610582578082015181840152602081019050610567565b50505050905090810190601f1680156105af5780820380516001836020036101000a031916815260200191505b50868103825288818151815260200191508051906020019080838360005b838110156105e85780820151818401526020810190506105cd565b50505050905090810190601f1680156106155780820380516001836020036101000a031916815260200191505b509e50505050505050505050505050505060405180910390f35b610637610ee1565b005b6106656004803603602081101561064f57600080fd5b8101908080359060200190929190505050610fbb565b005b61066f611110565b604051808273ffffffffffffffffffffffffffffffffffffffff16815260200191505060405180910390f35b60015481565b600260405180610120016040528060015481526020018881526020018781526020013373ffffffffffffffffffffffffffffffffffffffff1681526020018681526020018581526020018481526020018381526020016000815250908060018154018082558091505060019003906000526020600020906009020160009091909190915060008201518160000155602082015181600101556040820151816002019080519060200190610755929190611134565b5060608201518160030160006101000a81548173ffffffffffffffffffffffffffffffffffffffff021916908373ffffffffffffffffffffffffffffffffffffffff16021790555060808201518160040190805190602001906107b9929190611134565b5060a08201518160050190805190602001906107d6929190611134565b5060c08201518160060190805190602001906107f3929190611134565b5060e0820151816007019080519060200190610810929190611134565b5061010082015181600801555050600360009054906101000a900473ffffffffffffffffffffffffffffffffffffffff1673ffffffffffffffffffffffffffffffffffffffff166382ab890a60026001548154811061086b57fe5b9060005260206000209060090201600101546040518263ffffffff1660e01b815260040180828152602001915050600060405180830381600087803b1580156108b357600080fd5b505af11580156108c7573d6000803e3d6000fd5b505050507f13df2bd7584eb95f8762decf6c96d08ba9f4bd092f4af7a9ed1eb2b2a5c62a8c600154878733888888886000604051808a8152602001898152602001806020018873ffffffffffffffffffffffffffffffffffffffff1681526020018060200180602001806020018060200187815260200186810386528d818151815260200191508051906020019080838360005b8381101561097657808201518184015260208101905061095b565b50505050905090810190601f1680156109a35780820380516001836020036101000a031916815260200191505b5086810385528b818151815260200191508051906020019080838360005b838110156109dc5780820151818401526020810190506109c1565b50505050905090810190601f168015610a095780820380516001836020036101000a031916815260200191505b5086810384528a818151815260200191508051906020019080838360005b83811015610a42578082015181840152602081019050610a27565b50505050905090810190601f168015610a6f5780820380516001836020036101000a031916815260200191505b50868103835289818151815260200191508051906020019080838360005b83811015610aa8578082015181840152602081019050610a8d565b50505050905090810190601f168015610ad55780820380516001836020036101000a031916815260200191505b50868103825288818151815260200191508051906020019080838360005b83811015610b0e578082015181840152602081019050610af3565b50505050905090810190601f168015610b3b5780820380516001836020036101000a031916815260200191505b509e50505050505050505050505050505060405180910390a1600160008154809291906001019190505550505050505050565b60028181548110610b7b57fe5b9060005260206000209060090201600091509050806000015490806001015490806002018054600181600116156101000203166002900480601f016020809104026020016040519081016040528092919081815260200182805460018160011615610100020316600290048015610c335780601f10610c0857610100808354040283529160200191610c33565b820191906000526020600020905b815481529060010190602001808311610c1657829003601f168201915b5050505050908060030160009054906101000a900473ffffffffffffffffffffffffffffffffffffffff1690806004018054600181600116156101000203166002900480601f016020809104026020016040519081016040528092919081815260200182805460018160011615610100020316600290048015610cf75780601f10610ccc57610100808354040283529160200191610cf7565b820191906000526020600020905b815481529060010190602001808311610cda57829003601f168201915b505050505090806005018054600181600116156101000203166002900480601f016020809104026020016040519081016040528092919081815260200182805460018160011615610100020316600290048015610d955780601f10610d6a57610100808354040283529160200191610d95565b820191906000526020600020905b815481529060010190602001808311610d7857829003601f168201915b505050505090806006018054600181600116156101000203166002900480601f016020809104026020016040519081016040528092919081815260200182805460018160011615610100020316600290048015610e335780601f10610e0857610100808354040283529160200191610e33565b820191906000526020600020905b815481529060010190602001808311610e1657829003601f168201915b505050505090806007018054600181600116156101000203166002900480601f016020809104026020016040519081016040528092919081815260200182805460018160011615610100020316600290048015610ed15780601f10610ea657610100808354040283529160200191610ed1565b820191906000526020600020905b815481529060010190602001808311610eb457829003601f168201915b5050505050908060080154905089565b3373ffffffffffffffffffffffffffffffffffffffff1660008054906101000a900473ffffffffffffffffffffffffffffffffffffffff1673ffffffffffffffffffffffffffffffffffffffff1614610fa2576040517f08c379a000000000000000000000000000000000000000000000000000000000815260040180806020018281038252600a8152602001807f6e6f74207065726d69740000000000000000000000000000000000000000000081525060200191505060405180910390fd5b3373ffffffffffffffffffffffffffffffffffffffff16ff5b600360009054906101000a900473ffffffffffffffffffffffffffffffffffffffff1673ffffffffffffffffffffffffffffffffffffffff166382ab890a6002838154811061100657fe5b9060005260206000209060090201600101546040518263ffffffff1660e01b815260040180828152602001915050600060405180830381600087803b15801561104e57600080fd5b505af1158015611062573d6000803e3d6000fd5b5050505060016002828154811061107557fe5b9060005260206000209060090201600801819055507fd42cacab4700e77b08a2d33cc97d95a9cb985cdfca3a206cfa4990da46dd181381600283815481106110b957fe5b906000526020600020906009020160010154600284815481106110d857fe5b90600052602060002090600902016008015460405180848152602001838152602001828152602001935050505060405180910390a150565b60008054906101000a900473ffffffffffffffffffffffffffffffffffffffff1681565b828054600181600116156101000203166002900490600052602060002090601f016020900481019282601f1061117557805160ff19168380011785556111a3565b828001600101855582156111a3579182015b828111156111a2578251825591602001919060010190611187565b5b5090506111b091906111b4565b5090565b5b808211156111cd5760008160009055506001016111b5565b509056fea2646970667358221220fd2a96cb9eeb34c12434f77faff5cf5f06b527ecef73dd5bc5a821ac0508006764736f6c634300060c0033",
  "immutableReferences": {},
  "source": "// SPDX-License-Identifier: GPL-3.0\r\npragma solidity >=0.5.0 <0.7.0;\r\n\r\ninterface Demand{\r\n    function update(uint _demandId) external;  //定义接口的方法\r\n}\r\n\r\ncontract DonateFactory {\r\n    address public admin;\r\n    uint public index; \r\n    Donate[] public donates; \r\n    Demand demand = Demand(0x860680319aBA123591c97223E3da42Cd76518982);\r\n\r\n    event NewDonate(uint id, uint demandId, string username, address sender, string content, string pic, string city, string express, uint status);\r\n    event Status(uint id, uint demandId, uint status);\r\n\r\n    constructor() public {\r\n        index = 0;\r\n        admin = msg.sender;\r\n    }\r\n\r\n    struct Donate {   //共九个参数\r\n        uint id;          //捐赠编号\r\n        uint demandId;    //关联的需求\r\n        string username;  //捐助人 or 机构 名称\r\n        address sender;   //捐助人address\r\n        string content;   //捐助内容\r\n        string pic;      //图片\r\n        string city;      //捐助人地区\r\n        string express;   //快递单号\r\n        uint status;      //状态号  0：捐赠中 1：捐赠完成 -1：失败\r\n    }\r\n\r\n    function createDonate(uint _demandId, string memory _username, string memory _content, string memory _pic, string memory _city, string memory _express) public  {\r\n        //require（需求status == 1） ;\r\n        donates.push(Donate(index, _demandId, _username, msg.sender, _content, _pic, _city, _express, 0));\r\n        demand.update(donates[index].demandId);\r\n        emit NewDonate(index, _demandId, _username, msg.sender, _content, _pic, _city, _express, 0);\r\n        index++;\r\n    }\r\n\r\n    function finish(uint _id) public {\r\n        demand.update(donates[_id].demandId);\r\n        donates[_id].status = 1;\r\n        emit Status(_id, donates[_id].demandId, donates[_id].status);\r\n    }\r\n\r\n    function destroy() public{      //合约销毁\r\n        require(admin == msg.sender,\"not permit\");\r\n        selfdestruct(msg.sender);\r\n    }\r\n\r\n}",
  "sourcePath": "/d/Code/Conflux/JustDonate/DonateFactory/contracts/DonateFactory.sol",
  "compiler": {
    "name": "solc",
    "version": "0.6.12+commit.27d51765.Linux.g++"
  },
  "schemaVersion": "3.2.0",
  "updatedAt": "2021-03-30T03:19:51.348Z",
  "devdoc": {
    "kind": "dev",
    "methods": {},
    "version": 1
  },
  "userdoc": {
    "kind": "user",
    "methods": {},
    "version": 1
  }
}